:020000040800F2
:1000000000500020D11C0008F51A0008FB1A000857
:10001000011B0008071B00080D1B00080000000062
:10002000000000000000000000000000131B00089A
:100030001F1B0008000000002B1B0008371B0008D6
:10004000191D0008191D0008191D0008191D0008B8
:10005000191D0008191D0008191D0008191D0008A8
:10006000191D0008191D0008191D0008191D000898
:10007000191D0008191D0008191D0008191D000888
:10008000191D0008191D0008191D0008191D000878
:10009000191D0008191D0008191D0008191D000868
:1000A000191D0008191D0008191D0008191D000858
:1000B000191D0008191D0008191D0008191D000848
:1000C000191D0008191D0008191D0008191D000838
:1000D000191D0008191D0008191D0008191D000828
:1000E000191D0008191D0008191D00080000000056
:1000F0000000000000000000000000000000000000
:0C01000000000000000000005FF808F1A3
:1001100010B5054C237833B9044B13B10448AFF341
:1001200000800123237010BD700200200000000039
:10013000EC73000808B5034B1BB103490348AFF348
:10014000008008BD0000000074020020EC7300086D
:10015000034613F8012B002AFBD1181A0138704707
:1001600081F0004102E000BF83F0004330B54FEA68
:1001700041044FEA430594EA050F08BF90EA020FD5
:100180001FBF54EA000C55EA020C7FEA645C7FEA68
:10019000655C00F0E2804FEA5454D4EB5555B8BF8B
:1001A0006D420CDD2C4480EA020281EA030382EAFC
:1001B000000083EA010180EA020281EA0303362D8E
:1001C00088BF30BD11F0004F4FEA01314FF4801C61
:1001D0004CEA113102D0404261EB410113F0004F73
:1001E0004FEA03334CEA133302D0524263EB43032A
:1001F00094EA050F00F0A780A4F10104D5F1200EC8
:100200000DDB02FA0EFC22FA05F2801841F1000122
:1002100003FA0EF2801843FA05F359410EE0A5F1F6
:1002200020050EF1200E012A03FA0EFC28BF4CF027
:10023000020C43FA05F3C01851EBE37101F00045DD
:1002400007D54FF0000EDCF1000C7EEB00006EEBEA
:100250000101B1F5801F1BD3B1F5001F0CD3490874
:100260005FEA30004FEA3C0C04F101044FEA4452CB
:1002700012F5800F80F09A80BCF1004F08BF5FEA52
:10028000500C50F1000041EB045141EA050130BD32
:100290005FEA4C0C404141EB0101013C28BFB1F544
:1002A000801FE9D291F0000F04BF01460020B1FA8F
:1002B00081F308BF2033A3F10B03B3F120020CDA62
:1002C0000C3208DD02F1140CC2F10C0201FA0CF040
:1002D00021FA02F10CE002F11402D8BFC2F1200CA5
:1002E00001FA02F120FA0CFCDCBF41EA0C0190405B
:1002F000E41AA2BF01EB0451294330BD6FEA0404A4
:100300001F3C1CDA0C340EDC04F11404C4F120028E
:1003100020FA04F001FA02F340EA030021FA04F3A0
:1003200045EA030130BDC4F10C04C4F1200220FAF7
:1003300002F001FA04F340EA0300294630BD21FA35
:1003400004F0294630BD94F0000F83F4801306BFFB
:1003500081F480110134013D4EE77FEA645C18BFEF
:100360007FEA655C29D094EA050F08BF90EA020F86
:1003700005D054EA000C04BF1946104630BD91EA7E
:10038000030F1EBF0021002030BD5FEA545C05D181
:100390004000494128BF41F0004130BD14F58004C0
:1003A0003CBF01F5801130BD01F0004545F0FE4134
:1003B00041F470014FF0000030BD7FEA645C1ABF69
:1003C000194610467FEA655C1CBF0B46024650EAA0
:1003D000013406BF52EA033591EA030F41F40021CC
:1003E00030BD00BF90F0000F04BF0021704730B552
:1003F0004FF4806404F132044FF000054FF0000127
:1004000050E700BF90F0000F04BF0021704730B5E7
:100410004FF4806404F1320410F0004548BF4042BC
:100420004FF000013EE700BF42004FEAE2014FEA11
:1004300031014FEA02701FBF12F07F4393F07F4FEC
:1004400081F06051704732F07F4208BF704793F0EF
:100450007F4F04BF41F40021704730B54FF4607402
:1004600001F0004521F000411CE700BF50EA010205
:1004700008BF704730B54FF000050AE050EA0102AE
:1004800008BF704730B511F0004502D5404261EB1E
:1004900041014FF4806404F132045FEA915C3FF45F
:1004A000D8AE4FF003025FEADC0C18BF03325FEAFC
:1004B000DC0C18BF033202EBDC02C2F1200300FAAD
:1004C00003FC20FA02F001FA03FE40EA0E0021FAD2
:1004D00002F11444BDE600BF70B54FF0FF0C4CF4C0
:1004E000E06C1CEA11541DBF1CEA135594EA0C0F72
:1004F00095EA0C0F00F0DEF82C4481EA030621EAAD
:100500004C5123EA4C5350EA013518BF52EA0335E7
:1005100041F4801143F4801338D0A0FB02CE4FF099
:100520000005E1FB02E506F00042E0FB03E54FF0C9
:100530000006E1FB03569CF0000F18BF4EF0010EC1
:10054000A4F1FF04B6F5007F64F5407404D25FEABD
:100550004E0E6D4146EB060642EAC62141EA555170
:100560004FEAC52040EA5E504FEACE2EB4F1FD0CB2
:1005700088BFBCF5E06F1ED8BEF1004F08BF5FEA30
:10058000500E50F1000041EB045170BD06F00046E2
:1005900046EA010140EA020081EA0301B4EB5C048F
:1005A000C2BFD4EB0C0541EA045170BD41F4801187
:1005B0004FF0000E013C00F3AB8014F1360FDEBFAC
:1005C000002001F0004170BDC4F10004203C35DA88
:1005D0000C341BDC04F11404C4F1200500FA05F30B
:1005E00020FA04F001FA05F240EA020001F00042AC
:1005F00021F0004110EBD37021FA04F642EB060122
:100600005EEA430E08BF20EAD37070BDC4F10C044B
:10061000C4F1200500FA04F320FA05F001FA04F20F
:1006200040EA020001F0004110EBD37041F10001FB
:100630005EEA430E08BF20EAD37070BDC4F1200506
:1006400000FA05F24EEA020E20FA04F301FA05F26E
:1006500043EA020321FA04F001F0004121FA04F216
:1006600020EA020000EBD3705EEA430E08BF20EAE6
:10067000D37070BD94F0000F0FD101F00046400020
:1006800041EB010111F4801F08BF013CF7D041EAA2
:10069000060195F0000F18BF704703F000465200A6
:1006A00043EB030313F4801F08BF013DF7D043EA77
:1006B0000603704794EA0C0F0CEA135518BF95EA2D
:1006C0000C0F0CD050EA410618BF52EA4306D1D1B4
:1006D00081EA030101F000414FF0000070BD50EAD3
:1006E000410606BF1046194652EA430619D094EA5D
:1006F0000C0F02D150EA013613D195EA0C0F05D147
:1007000052EA03361CBF104619460AD181EA03019A
:1007100001F0004141F0FE4141F470014FF0000052
:1007200070BD41F0FE4141F4780170BD70B54FF0ED
:10073000FF0C4CF4E06C1CEA11541DBF1CEA13556D
:1007400094EA0C0F95EA0C0F00F0A7F8A4EB05044F
:1007500081EA030E52EA03354FEA013100F0888046
:100760004FEA03334FF0805545EA131343EA12630F
:100770004FEA022245EA111545EA10654FEA0026C4
:100780000EF000419D4208BF964244F1FD0404F57D
:10079000407402D25B084FEA3202B61A65EB0305D9
:1007A0005B084FEA32024FF480104FF4002CB6EB96
:1007B000020E75EB030E22BFB61A754640EA0C0016
:1007C0005B084FEA3202B6EB020E75EB030E22BF56
:1007D000B61A754640EA5C005B084FEA3202B6EB97
:1007E000020E75EB030E22BFB61A754640EA9C0056
:1007F0005B084FEA3202B6EB020E75EB030E22BF26
:10080000B61A754640EADC0055EA060E18D04FEAE3
:10081000051545EA16754FEA06164FEAC30343EA83
:1008200052734FEAC2025FEA1C1CC0D111F4801F50
:100830000BD141EA00014FF000004FF0004CB6E749
:1008400011F4801F04BF01430020B4F1FD0C88BFE8
:10085000BCF5E06F3FF6AFAEB5EB030C04BFB6EBF3
:10086000020C5FEA500C50F1000041EB045170BDE6
:100870000EF0004E4EEA113114EB5C04C2BFD4EB13
:100880000C0541EA045170BD41F480114FF0000E97
:10089000013C90E645EA060E8DE60CEA135594EA13
:1008A0000C0F08BF95EA0C0F3FF43BAF94EA0C0F16
:1008B0000AD150EA01347FF434AF95EA0C0F7FF48B
:1008C00025AF104619462CE795EA0C0F06D152EADF
:1008D00003353FF4FDAE1046194622E750EA4106C3
:1008E00018BF52EA43067FF4C5AE50EA41047FF4D4
:1008F0000DAF52EA43057FF4EBAE12E74FF0FF3C39
:1009000006E000BF4FF0010C02E000BF4FF0010C09
:100910004DF804CD4FEA410C7FEA6C5C4FEA430C82
:1009200018BF7FEA6C5C1BD001B050EA410C0CBFD1
:1009300052EA430C91EA030F02BF90EA020F002033
:10094000704710F1000F91EA030F58BF994208BF9A
:1009500090422CBFD8176FEAE37040F00100704757
:100960004FEA410C7FEA6C5C02D150EA013C07D1AE
:100970004FEA430C7FEA6C5CD6D152EA033CD3D0F9
:100980005DF8040B704700BF8446104662468C46F3
:100990001946634600E000BF01B5FFF7B7FF002826
:1009A00048BF10F1000F01BD4DF808EDFFF7F4FF4F
:1009B0000CBF012000205DF808FB00BF4DF808EDDA
:1009C000FFF7EAFF34BF012000205DF808FB00BFFD
:1009D0004DF808EDFFF7E0FF94BF012000205DF81F
:1009E00008FB00BF4DF808EDFFF7CEFF94BF0120D4
:1009F00000205DF808FB00BF4DF808EDFFF7C4FFCD
:100A000034BF012000205DF808FB00BF4FEA410C15
:100A10007FEA6C5C02D150EA013C0AD14FEA430CF8
:100A20007FEA6C5C02D152EA033C02D14FF0000035
:100A300070474FF0010070474FEA410212F5001273
:100A400015D211D56FF47873B3EB625212D94FEA15
:100A5000C12343F0004343EA505311F0004F23FAFF
:100A600002F018BF404270474FF00000704750EA54
:100A7000013005D111F0004008BF6FF00040704711
:100A80004FF00000704700BF80F0004002E000BF60
:100A900081F0004142001FBF5FEA410392EA030F69
:100AA0007FEA226C7FEA236C6AD04FEA1262D2EBB3
:100AB0001363C1BFD218414048404140B8BF5B42B8
:100AC000192B88BF704710F0004F40F4000020F051
:100AD0007F4018BF404211F0004F41F4000121F067
:100AE0007F4118BF494292EA030F3FD0A2F10102B1
:100AF00041FA03FC10EB0C00C3F1200301FA03F1EF
:100B000000F0004302D5494260EB4000B0F5000F11
:100B100013D3B0F1807F06D340084FEA310102F1D0
:100B20000102FE2A51D2B1F1004F40EBC25008BF82
:100B300020F0010040EA03007047490040EB00004C
:100B4000013A28BFB0F5000FEDD2B0FA80FCACF14D
:100B5000080CB2EB0C0200FA0CF0AABF00EBC2507A
:100B600052421843BCBFD0401843704792F0000F68
:100B700081F4000106BF80F400000132013BB5E7BB
:100B80004FEA41037FEA226C18BF7FEA236C21D031
:100B900092EA030F04D092F0000F08BF0846704796
:100BA00090EA010F1CBF0020704712F07F4F04D164
:100BB000400028BF40F00040704712F100723CBF77
:100BC00000F50000704700F0004343F0FE4040F4A1
:100BD000000070477FEA226216BF08467FEA23635F
:100BE0000146420206BF5FEA412390EA010F40F44A
:100BF000800070474FF0000304E000BF10F0004396
:100C000048BF40425FEA000C08BF704743F096437C
:100C100001464FF000001CE050EA010208BF704797
:100C20004FF000030AE000BF50EA010208BF70471E
:100C300011F0004302D5404261EB41015FEA010C33
:100C400002BF84460146002043F0B64308BFA3F12B
:100C50008053A3F50003BCFA8CF2083AA3EBC2530D
:100C600010DB01FA02FC634400FA02FCC2F120022C
:100C7000BCF1004F20FA02F243EB020008BF20F063
:100C80000100704702F1200201FA02FCC2F12002C9
:100C900050EA4C0021FA02F243EB020008BF20EABE
:100CA000DC7070474FF0FF0C1CEAD0521EBF1CEAEC
:100CB000D15392EA0C0F93EA0C0F6FD01A4480EADA
:100CC000010C400218BF5FEA41211ED04FF00063C3
:100CD00043EA501043EA5111A0FB01310CF00040EF
:100CE000B1F5000F3EBF490041EAD3715B0040EA15
:100CF000010062F17F02FD2A1DD8B3F1004F40EBE5
:100D0000C25008BF20F00100704790F0000F0CF0B7
:100D1000004C08BF49024CEA502040EA51207F3A7B
:100D2000C2BFD2F1FF0340EAC250704740F4000056
:100D30004FF00003013A5DDC12F1190FDCBF00F047
:100D400000407047C2F10002410021FA02F1C2F1F5
:100D5000200200FA02FC5FEA310040F1000053EA91
:100D60004C0308BF20EADC70704792F0000F00F0DF
:100D7000004C02BF400010F4000F013AF9D040EAE5
:100D80000C0093F0000F01F0004C02BF490011F479
:100D9000000F013BF9D041EA0C018FE70CEAD15377
:100DA00092EA0C0F18BF93EA0C0F0AD030F0004CF7
:100DB00018BF31F0004CD8D180EA010000F00040AB
:100DC000704790F0000F17BF90F0004F084691F069
:100DD000000F91F0004F14D092EA0C0F01D14202A3
:100DE0000FD193EA0C0F03D14B0218BF084608D16C
:100DF00080EA010000F0004040F0FE4040F40000B6
:100E0000704740F0FE4040F4400070474FF0FF0C48
:100E10001CEAD0521EBF1CEAD15392EA0C0F93EA8F
:100E20000C0F69D0A2EB030280EA010C49024FEAE1
:100E3000402037D04FF0805343EA111143EA10139A
:100E40000CF000408B4238BF5B0042F17D024FF452
:100E5000000C8B4224BF5B1A40EA0C00B3EB510F2D
:100E600024BFA3EB510340EA5C00B3EB910F24BF16
:100E7000A3EB910340EA9C00B3EBD10F24BFA3EB9B
:100E8000D10340EADC001B0118BF5FEA1C1CE0D163
:100E9000FD2A3FF650AF8B4240EBC25008BF20F016
:100EA000010070470CF0004C4CEA50207F32C2BF6A
:100EB000D2F1FF0340EAC250704740F400004FF007
:100EC0000003013A37E792F0000F00F0004C02BF38
:100ED000400010F4000F013AF9D040EA0C0093F002
:100EE000000F01F0004C02BF490011F4000F013B5C
:100EF000F9D041EA0C0195E70CEAD15392EA0C0FC4
:100F000008D142027FF47DAF93EA0C0F7FF470AFFB
:100F1000084676E793EA0C0F04D14B023FF44CAF3E
:100F200008466EE730F0004C18BF31F0004CCAD1D3
:100F300030F000427FF45CAF31F000437FF43CAF0F
:100F40005FE700BF80B500AF124B134A1A60114B28
:100F5000124A5A600F4B00229A600E4B0022DA6050
:100F60000C4B4FF480421A610A4B00225A61094B24
:100F700000229A61074B0022DA61064B00221A62B6
:100F8000044801F0B9F90346002B01D000F06AF9DA
:100F900000BF80BD9004002000540040A0860100E6
:100FA00080B485B000AF78600023FB6002E0FB688E
:100FB0000133FB607B685A1C7A601B78002BF6D1EA
:100FC000FB6818461437BD4680BC70470FB480B527
:100FD00082B000AF07F114033B603B683A694FF4FD
:100FE000FA710B4803F09EFC0948FFF7D9FF7860BF
:100FF0007B689AB24FF47A730549064802F034FED2
:1010000000BF0837BD46BDE8804004B0704700BF50
:1010100090020020400500202DE9F04FADF50F7D36
:101020000CAF00F07BFE00F089F800F0EDF8FFF760
:1010300089FF00F0BFF83B4800F019F90346012B87
:1010400002D1394B01221A703849364800F068F94C
:101050004FF47A7000F0C4FE354B1B785A1CD1B2A5
:10106000334A11701846FFF7BDF902460B46314965
:10107000C1E900232D4BD3E902232E49C1E9022304
:101080002A4BD3E904232B49C1E90423274BD3E995
:1010900006232849C1E90623244BD3E90A2325491D
:1010A000C1E90823214BD3E90C232249C1E90A23D2
:1010B0001E4BD3E90E231F49C1E90C231D4B18CB4E
:1010C000C7E902341B4BD3E902011A4BD3E90445AB
:1010D000184BD3E90689174BD3E908AB154BD3E975
:1010E0000A23C7E90023134BD3E90C2307F11406A5
:1010F000CDE90A23D7E90023CDE90823CDE906ABE2
:10110000CDE90489CDE90245CDE90001D7E9022303
:101110000949304603F0BAFB07F114031846FFF7FC
:1011200055FF91E7900400208D020020E804002084
:101130008C020020880500200874000880B590B05B
:1011400000AF07F1180328220021184602F036FFED
:101150003B1D00221A605A609A60DA601A6102230D
:10116000BB610123BB621023FB6200237B6307F199
:101170001803184602F01AF90346002B01D000F0BC
:1011800071F80F237B600023BB600023FB6000230A
:101190003B6100237B613B1D0021184602F086FB6A
:1011A0000346002B01D000F05DF800BF4037BD467C
:1011B00080BD000080B500AF114B124A1A60104B81
:1011C0004FF4E1325A600E4B00229A600C4B002221
:1011D000DA600B4B00221A61094B0C225A61084B52
:1011E00000229A61064B0022DA61054802F0ECFC0D
:1011F0000346002B01D000F035F800BF80BD00BFD2
:10120000400500200038014080B485B000AF144B89
:101210009B69134A43F020039361114B9B6903F0D0
:101220002003FB60FB680E4B9B690D4A43F00403EF
:1012300093610B4B9B6903F00403BB60BB68084BD5
:101240009B69074A43F008039361054B9B6903F0D0
:1012500008037B607B6800BF1437BD4680BC7047C5
:101260000010024080B400AF72B600BFFEE780B548
:1012700088B004AF7860642302930123019307F1DF
:101280000F03009301237522D021786801F072FAD0
:10129000FB7B682B3DD10023BB73642302930123A6
:1012A000019307F10E03009301236B22D02178688C
:1012B00001F066F90723BB736423029301230193B2
:1012C00007F10E03009301231922D021786801F061
:1012D00057F90023BB73642302930123019307F1A1
:1012E0000E03009301231C22D021786801F048F9F5
:1012F0000023BB73642302930123019307F10E03C0
:10130000009301231B22D021786801F039F90123D1
:1013100000E0002318461037BD4680BD00000000E5
:101320002DE9B04F94B004AF786039606423029324
:101330000E23019307F10803009301233B22D021E0
:10134000786801F017FA3B7A1B021AB27B7A1BB25B
:1013500013431AB23B681A80BB7A1B021AB2FB7A9B
:101360001BB213431AB23B685A803B7B1B021AB272
:101370007B7B1BB213431AB23B689A80BB7B1B0278
:101380001AB2FB7B1BB21343FB863B7C1B021AB2D7
:101390007B7C1BB213431AB23B681A84BB7C1B02D2
:1013A0001AB2FB7C1BB213431AB23B685A843B7DD2
:1013B0001B021AB27B7D1BB213431AB23B689A849C
:1013C0003B68B3F900301846FFF71CF84FF00002F5
:1013D000B74BFFF7ABF902460B463968C1E9022368
:1013E0003B68B3F902301846FFF70CF84FF00002E3
:1013F000AF4BFFF79BF902460B463968C1E904235E
:101400003B68B3F904301846FEF7FCFFA2A3D3E90A
:101410000023FFF78BF902460B463968C1E9062322
:10142000B7F936301846FFF7E9FB0346A1491846DD
:10143000FFF7ECFC0346A0491846FFF72BFB0346D9
:101440001A463B681A643B68B3F920301846FEF729
:10145000D9FF93A3D3E90023FFF768F902460B46AF
:101460003968C1E90A233B68B3F922301846FEF710
:10147000C9FF8BA3D3E90023FFF758F902460B46B7
:101480003968C1E90C233B68B3F924301846FEF7EC
:10149000B9FF83A3D3E90023FFF748F902460B46BF
:1014A0003968C1E90E2300F091FC0246834B1B68AA
:1014B000D31A1846FEF796FF4FF00002804BFFF755
:1014C00035F902460B46C7E90A2300F07FFC0346C4
:1014D0007A4A13603B68B3F900301A463B68B3F9A7
:1014E000003003FB02F23B68B3F9043019463B6855
:1014F000B3F9043003FB01F313441846FEF782FFEF
:1015000002460B461046194605F0C6FDC7E908011C
:101510004FF000024FF00003D7E90801FFF744FA4B
:101520000346002B19D13B68B3F902301846FEF789
:1015300069FFD7E90823FFF7F9F802460B46104682
:10154000194605F019FC58A3D3E90023FEF7C4FFA0
:1015500002460B46C7E90E2305E04FF000024FF0AC
:101560000003C7E90E233B68B3F900305B4218461D
:10157000FEF748FF82468B463B68B3F904301846B5
:10158000FEF740FF02460B465046594605F081FDE6
:1015900045A3D3E90023FEF79FFF02460B46C7E9A8
:1015A00006234FF00002474BD7E90601FFF706FA82
:1015B0000346002B0AD03B68D3E914014FF0000228
:1015C000414BFFF719FA0346002B14D14FF00002EC
:1015D0003D4BD7E90601FFF70FFA0346002B15D064
:1015E0003B68D3E914014FF00002364BFFF7E6F9F0
:1015F0000346002B0AD03549D7E90623C1E9062363
:101600003968D7E90623C1E9142312E03B68D3E91E
:101610000C23D7E90A01CDE90201CDE90023D7E97E
:1016200006232A4800F056F802460B463968C1E9FD
:1016300014233B68D3E91423904623F000494FF06C
:101640000002214B40464946FFF7D6F90346002BDE
:1016500008D03B68D3E90A23144683F000453B6871
:10166000C3E90A453B68D3E90A23D7E90A01CDE972
:101670000201CDE90023D7E90E23154800F02AF82E
:1016800002460B463968C1E9122300BF4037BD4608
:10169000BDE8B08FAFF30080000000000029CC400F
:1016A0000000000000606040F8C1631ADCA54C40F7
:1016B0000000D0400000AA43B81E1242C00500201E
:1016C00000408F40008056C00080564048000020F7
:1016D00000000020B0B592B000AFF860C7E9002369
:1016E000FB68D3E90823D7E91601FEF73DFD024662
:1016F0000B46C7E91023FB68D3E90645D7E9102359
:10170000D7E91801FEF7E8FE02460B4620462946B7
:10171000FEF72CFD02460B46F968C1E90623FB687B
:10172000D3E90A45FB68D3E91001D7E91823FEF78E
:10173000D3FE02460B4610461946FB68D3E90C233C
:10174000FEF712FD02460B4610461946FB68D3E928
:101750000E23FEF709FD02460B4610461946FB68AC
:10176000D3E90023FEF702FD02460B461046194658
:10177000D7E91823FEF7B0FE02460B46204629465D
:10178000FEF7F4FC02460B46F968C1E90A23FB6840
:10179000D3E90C45FB68D3E91001D7E91823FEF71C
:1017A0009BFE02460B4620462946FEF7DDFC02461C
:1017B0000B46F968C1E90C23FB68D3E90E45FB68C9
:1017C000D3E91001D7E91823FEF786FE02460B463F
:1017D00020462946FEF7C8FC02460B46F968C1E9D7
:1017E0000E23FB68D3E91045FB68D3E90201D7E972
:1017F0001823FEF771FE02460B4620462946FEF7E7
:10180000B5FC02460B46F968C1E91023FB68D3E931
:101810000A01FB68D3E90423FEF7A8FC02460B4645
:10182000C7E90E23FB68D3E90A01D7E90E23FEF7C7
:101830007DFF02460B46C7E90423FB68D3E90E018E
:10184000D7E90E23FEF772FF02460B46C7E90623CF
:10185000FB68D3E90623D7E90001FEF785FC0246C1
:101860000B46C7E90C23FB68D3E90645D7E9040119
:10187000D7E90C23FEF730FE02460B4620462946E8
:10188000FEF774FC02460B46F968C1E90623FB68C3
:10189000D3E90845D7E90601D7E90C23FEF71CFE7A
:1018A00002460B4620462946FEF760FC02460B46E0
:1018B000F968C1E90823FB68D3E90A23C7E90A23C9
:1018C000FB68D3E90C23C7E90823FB68D3E90A4581
:1018D000D7E90401D7E90A23FEF7FEFD02460B46CD
:1018E00020462946FEF740FC02460B46F968C1E94E
:1018F0000A23FB68D3E90C45D7E90401D7E908239B
:10190000FEF7EAFD02460B4620462946FEF72CFC70
:1019100002460B46F968C1E90C23FB68D3E90E4582
:10192000D7E90601D7E90A23FEF7D6FD02460B46A2
:1019300020462946FEF718FC02460B46F968C1E925
:101940000E23FB68D3E91045D7E90601D7E9082340
:10195000FEF7C2FD02460B4620462946FEF704FC70
:1019600002460B46F968C1E91023FB68D3E9062358
:10197000104619464837BD46B0BD000080B485B05A
:1019800000AF154B9B69144A43F001039361124B5E
:101990009B6903F00103BB60BB680F4BDB690E4A18
:1019A00043F08053D3610C4BDB6903F080537B60C1
:1019B0007B680A4B5B68FB60FB6823F0E063FB60BD
:1019C000FB6843F00073FB60044AFB68536000BF90
:1019D0001437BD4680BC7047001002400000014033
:1019E00080B588B000AF786007F1100300221A605C
:1019F0005A609A60DA607B681B68154A934223D16B
:101A0000144B9B69134A43F008039361114B9B6984
:101A100003F00803FB60FB68C0233B6112237B617A
:101A20000323FB6107F1100319460B4800F0E0FAAD
:101A3000084BDB69074A43F40013D361054BDB69AC
:101A400003F40013BB60BB6800BF2037BD4680BDF8
:101A50000054004000100240000C014080B588B0E6
:101A600000AF786007F1100300221A605A609A6094
:101A7000DA607B681B681C4A934231D11B4B9B691F
:101A80001A4A43F480439361184B9B6903F48043E3
:101A9000FB60FB68154B9B69144A43F00403936198
:101AA000124B9B6903F00403BB60BB684FF40073E7
:101AB0003B6102237B610323FB6107F1100319469D
:101AC0000B4800F095FA4FF480633B6100237B6183
:101AD0000023BB6107F110031946054800F088FA9E
:101AE00000BF2037BD4680BD0038014000100240D5
:101AF0000008014080B400AFFEE780B400AFFEE70D
:101B000080B400AFFEE780B400AFFEE780B400AF62
:101B1000FEE780B400AF00BFBD4680BC704780B414
:101B200000AF00BFBD4680BC704780B400AF00BFAF
:101B3000BD4680BC704780B500AF00F035F900BFEE
:101B400080BD80B400AF01231846BD4680BC7047FD
:101B500080B582B000AF7860396002F005FA0346C4
:101B600016221A604FF0FF3318460837BD4680BD75
:101B700080B582B000AF78604FF0FF317868FFF732
:101B8000E7FFFEE780B586B000AFF860B9607A6025
:101B900000237B610AE0AFF300800146BB685A1C5A
:101BA000BA60CAB21A707B6901337B617A697B685B
:101BB0009A42F0DB7B6818461837BD4680BD80B579
:101BC00086B000AFF860B9607A6000237B6109E0FD
:101BD000BB685A1CBA601B781846AFF300807B695B
:101BE00001337B617A697B689A42F1DB7B68184636
:101BF0001837BD4680BD80B483B000AF78604FF029
:101C0000FF3318460C37BD4680BC704780B483B0A4
:101C100000AF786039603B684FF400525A6000238F
:101C200018460C37BD4680BC704780B483B000AF07
:101C30007860012318460C37BD4680BC704780B4DD
:101C400085B000AFF860B9607A6000231846143799
:101C5000BD4680BC7047000080B586B000AF78609C
:101C6000144A154BD31A7B617B693B61134B1B688C
:101C7000002B02D1114B124A1A60104B1A687B6874
:101C800013443A699A4207D202F06EF903460C22D5
:101C90001A604FF0FF3309E0084B1B68FB60074BED
:101CA0001A687B681344054A1360FB6818461837A6
:101CB000BD4680BD005000200004000084040020C8
:101CC000D805002080B400AF00BFBD4680BC70477F
:101CD000FFF7F8FF0B480C490C4A002302E0D458E8
:101CE000C4500433C4188C42F9D3094A094C002368
:101CF00001E013600432A242FBD302F03BF9FFF78C
:101D00008BF970470000002070020020C0780008A6
:101D100070020020D8050020FEE7000080B500AF6B
:101D2000084B1B68074A43F010031360032000F0C0
:101D30002BF90F2000F008F8FFF720FE00231846CB
:101D400080BD00BF0020024080B582B000AF786047
:101D5000124B1A68124B1B7819464FF47A73B3FB77
:101D6000F1F3B2FBF3F3184600F035F90346002B0C
:101D700001D001230EE07B680F2B0AD8002279687E
:101D80004FF0FF3000F00BF9064A7B681360002328
:101D900000E0012318460837BD4680BD90000020B2
:101DA000980000209400002080B400AF054B1B7801
:101DB0001A46054B1B681344034A136000BFBD4617
:101DC00080BC704798000020C405002080B400AF9C
:101DD000024B1B681846BD4680BC7047C4050020F6
:101DE00080B584B000AF7860FFF7F0FFB8607B6823
:101DF000FB60FB68B3F1FF3F05D00A4B1B781A4626
:101E0000FB681344FB6000BFFFF7E0FF0246BB68BE
:101E1000D31AFA689A42F7D800BF00BF1037BD4600
:101E200080BD00BF9800002080B485B000AF78600E
:101E30007B6803F00703FB600C4BDB68BB60BA6890
:101E40004FF6FF031340BB60FB681A02BB681343E5
:101E500043F0BF6343F40033BB60044ABB68D36004
:101E600000BF1437BD4680BC704700BF00ED00E0E6
:101E700080B400AF044BDB681B0A03F0070318466D
:101E8000BD4680BC704700BF00ED00E080B483B069
:101E900000AF03463960FB7197F90730002B0ADB6E
:101EA0003B68DAB20C4997F907301201D2B20B4401
:101EB00083F800230AE03B68DAB20849FB7903F0B3
:101EC0000F03043B1201D2B20B441A7600BF0C3749
:101ED000BD4680BC704700BF00E100E000ED00E0BF
:101EE00080B489B000AFF860B9607A60FB6803F035
:101EF0000703FB61FB69C3F10703042B28BF04231D
:101F0000BB61FB690433062B02D9FB69033B00E08C
:101F100000237B614FF0FF32BB6902FA03F3DA431F
:101F2000BB681A407B699A404FF0FF317B6901FA28
:101F300003F3D9437B680B40134318462437BD464F
:101F400080BC704780B582B000AF78607B68013B91
:101F5000B3F1807F01D301230FE00A4A7B68013B84
:101F600053600F214FF0FF30FFF790FF054B002229
:101F70009A60044B07221A60002318460837BD46B2
:101F800080BD00BF10E000E080B582B000AF786097
:101F90007868FFF749FF00BF0837BD4680BD80B5B0
:101FA00086B000AF0346B9607A60FB7300237B61A3
:101FB000FFF75EFF78617A68B9687869FFF790FF8C
:101FC000024697F90F3011461846FFF75FFF00BF32
:101FD0001837BD4680BD80B582B000AF78607868A4
:101FE000FFF7B0FF034618460837BD4680BD000026
:101FF00080B48BB000AF7860396000237B6200232F
:102000003B6269E101227B6A02FA03F3FB613B68F0
:102010001B68FA691340BB61BA69FB699A4240F0D8
:1020200058813B685B689A4A93425ED0984A9342D3
:1020300075D8984A934258D0964A93426FD8964A98
:10204000934252D0944A934269D8944A93424CD0D6
:10205000924A934263D8924A934246D0904A93421E
:102060005DD8122B2AD8122B59D801A252F823F08E
:10207000EB200008C5200008D7200008192100081F
:102080001F2100081F2100081F2100081F21000830
:102090001F2100081F2100081F2100081F21000820
:1020A0001F2100081F2100081F2100081F21000810
:1020B0001F210008CD200008E1200008794A934242
:1020C00013D02CE03B68DB683B6229E03B68DB68AF
:1020D00004333B6224E03B68DB6808333B621FE06B
:1020E0003B68DB680C333B621AE03B689B68002B63
:1020F00002D104233B6213E03B689B68012B05D1AE
:1021000008233B627B68FA691A6109E008233B6295
:102110007B68FA695A6103E000233B6200E000BF7C
:10212000BB69FF2B01D87B6801E07B6804337B61CE
:10213000BB69FF2B02D87B6A9B0002E07B6A083BED
:102140009B003B617B691A680F213B6901FA03F32D
:10215000DB431A40396A3B6901FA03F31A437B698E
:102160001A603B685B6803F08053002B00F0B1807D
:102170004D4B9B694C4A43F0010393614A4B9B6969
:1021800003F00103BB60BB68484A7B6A9B080233CB
:1021900052F82330FB607B6A03F003039B000F229D
:1021A00002FA03F3DB43FA681340FB607B68404AA2
:1021B000934213D07B683F4A93420DD07B683E4ADE
:1021C000934207D07B683D4A934201D1032306E046
:1021D000042304E0022302E0012300E000237A6AE2
:1021E00002F0030292009340FA681343FB602F4908
:1021F0007B6A9B080233FA6841F823203B685B68DE
:1022000003F48013002B06D02D4B9A682C49BB6930
:1022100013438B6006E02A4B9A68BB69DB4328496D
:1022200013408B603B685B6803F40013002B06D0FF
:10223000234BDA682249BB691343CB6006E0204B8D
:10224000DA68BB69DB431E491340CB603B685B68BF
:1022500003F40033002B06D0194B5A681849BB69A8
:1022600013434B6006E0164B5A68BB69DB431449C5
:1022700013404B603B685B6803F48033002B21D034
:102280000F4B1A680E49BB6913430B6021E000BF76
:102290000000321000003110000022100000211058
:1022A0000000121000001110001002400000014058
:1022B00000080140000C01400010014000140140E2
:1022C000000401400B4B1A68BB69DB43094913400A
:1022D0000B607B6A01337B623B681A687B6A22FA77
:1022E00003F3002B7FF48EAE00BF00BF2C37BD463A
:1022F00080BC70470004014080B584B000AF7860B6
:102300007B68002B01D101232BE17B6893F83D30E2
:10231000DBB2002B06D17B68002283F83C20786872
:10232000FFF75EFB7B68242283F83D207B681B68F7
:102330001A687B681B6822F001021A607B681B68C0
:102340001A687B681B6842F400421A607B681B684D
:102350001A687B681B6822F400421A6001F0EEFBE9
:10236000F8607B685B68814A934207D8FB68804AC3
:10237000934294BF01230023DBB206E0FB687D4A51
:10238000934294BF01230023DBB2002B01D0012331
:10239000E7E0FB68784AA2FB03239B0CBB607B68E9
:1023A0001B685B6823F03F017B681B68BA680A43BF
:1023B0005A607B681B681B6A23F03F017B685B687F
:1023C0006A4A934202D8BB68013309E0BB684FF404
:1023D000967202FB03F3694AA2FB03239B090133B4
:1023E0007A6812680B4313627B681B68DB6923F40D
:1023F0004F4222F0FF027B685B685C498B4219D830
:10240000FB68591E7B685B685B00B1FBF3F3591CEA
:1024100040F6FC730B40002B0AD0FB68591E7B680A
:102420005B685B00B1FBF3F30133C3F30B0351E0D3
:1024300004234FE07B689B68002B11D1FB68581E7A
:102440007B6859680B465B000B44B0FBF3F3013328
:10245000C3F30B03002B0CBF01230023DBB212E0FC
:10246000FB68581E7B6859680B469B000B4499001B
:102470000B44B0FBF3F30133C3F30B03002B0CBF8E
:1024800001230023DBB2002B01D0012322E07B6873
:102490009B68002B0ED1FB68581E7B6859680B4661
:1024A0005B000B44B0FBF3F30133C3F30B0343F4C2
:1024B00000430FE0FB68581E7B6859680B469B0081
:1024C0000B4499000B44B0FBF3F30133C3F30B034C
:1024D00043F44043796809681343CB617B681B6808
:1024E0001B6823F0C0017B68DA697B681B6A1A43AA
:1024F0007B681B680A431A607B681B689B6823F42F
:10250000034323F0FF037A6811697A68D2681143A4
:102510007A6812680B4393607B681B68DB6823F062
:10252000FF017B685A697B689B691A437B681B685B
:102530000A43DA607B681B681A687B681B6842F094
:1025400001021A607B6800221A647B68202283F8EB
:102550003D207B6800221A637B68002283F83E20BE
:10256000002318461037BD4680BD00BFA08601007D
:102570007F841E00FF083D0083DE1B43D34D6210A5
:1025800080B588B002AFF860084611461A46034687
:102590007B810B463B811346FB80FFF717FC78617C
:1025A000FB6893F83D30DBB2202B40F0D9807B698B
:1025B0000093192301226D49F86800F0C1FC03461D
:1025C000002B01D00223CCE0FB6893F83C30012BB8
:1025D00001D10223C5E0FB68012283F83C20FB689F
:1025E0001B681B6803F00103012B07D0FB681B6805
:1025F0001A68FB681B6842F001021A60FB681B68DE
:102600001A68FB681B6822F400621A60FB682122CA
:1026100083F83D20FB68402283F83E20FB680022BF
:102620001A64FB683A6A5A62FB68BA8C5A85FB687E
:102630005B8D9AB2FB681A85FB684D4ADA62F888AE
:102640003A8979897B690193BB6A00930346F868EC
:1026500000F0F8FA0346002B52D0012381E07A699A
:10266000B96AF86800F086FD0346002B0DD0FB68C0
:102670001B6C042B07D1FB681B681A68FB681B687E
:1026800042F400721A6001236BE0FB685B6A1A78FF
:10269000FB681B681A61FB685B6A5A1CFB685A621C
:1026A000FB681B8D013B9AB2FB681A85FB685B8D4A
:1026B0009BB2013B9AB2FB685A85FB681B685B6959
:1026C00003F00403042B1BD1FB681B8D002B17D0D8
:1026D000FB685B6A1A78FB681B681A61FB685B6AB7
:1026E0005A1CFB685A62FB681B8D013B9AB2FB685F
:1026F0001A85FB685B8D9BB2013B9AB2FB685A85D9
:10270000FB681B8D002BAAD17A69B96AF86800F0C2
:1027100079FD0346002B0DD0FB681B6C042B07D101
:10272000FB681B681A68FB681B6842F400721A6039
:10273000012316E0FB681B681A68FB681B6842F4FB
:1027400000721A60FB68202283F83D20FB6800229B
:1027500083F83E20FB68002283F83C20002300E041
:10276000022318461837BD4680BD00BF0200100086
:102770000000FFFF80B58CB002AFF860084611463C
:102780001A4603467B810B463B811346FB800023A0
:102790003B62FFF71BFB7862FB6893F83D30DBB2CE
:1027A000202B40F044827B6A009319230122824946
:1027B000F86800F0C5FB0346002B01D0022337E286
:1027C000FB6893F83C30012B01D1022330E2FB6817
:1027D000012283F83C20FB681B681B6803F001039F
:1027E000012B07D0FB681B681A68FB681B6842F066
:1027F00001021A60FB681B681A68FB681B6822F4F8
:1028000000621A60FB68222283F83D20FB684022A8
:1028100083F83E20FB6800221A64FB683A6B5A6218
:10282000FB68BA8E5A85FB685B8D9AB2FB681A8585
:10283000FB68624ADA62F8883A8979897B6A01938F
:10284000BB6B00930346F86800F092FA0346002B36
:1028500001D00123ECE1FB681B8D002B13D1002379
:10286000FB61FB681B685B69FB61FB681B689B691C
:10287000FB61FB69FB681B681A68FB681B6842F414
:1028800000721A60C0E1FB681B8D012B1ED1FB6832
:102890001B681A68FB681B6822F480621A6072B6B3
:1028A00000BF0023BB61FB681B685B69BB61FB6801
:1028B0001B689B69BB61BB69FB681B681A68FB6886
:1028C0001B6842F400721A6062B635E0FB681B8D2B
:1028D000022B1ED1FB681B681A68FB681B6842F458
:1028E00000621A6072B600BF00237B61FB681B6840
:1028F0005B697B61FB681B689B697B617B69FB682B
:102900001B681A68FB681B6822F480621A6062B652
:1029100012E0FB681B681A68FB681B6842F480625F
:102920001A6000233B61FB681B685B693B61FB68C5
:102930001B689B693B613B6966E1FB681B8D032B50
:1029400000F21F81FB681B8D012B23D17A6AB96BC2
:10295000F86800F09FFC0346002B01D0012367E1DB
:10296000FB681B681A69FB685B6AD2B21A70FB6865
:102970005B6A5A1CFB685A62FB681B8D013B9AB26A
:10298000FB681A85FB685B8D9BB2013B9AB2FB68C2
:102990005A8539E1FB681B8D022B52D17B6A00936B
:1029A000BB6B00220649F86800F0CAFA0346002B08
:1029B00008D001233CE100BF020010000000FFFF2F
:1029C0000400010072B600BFFB681B681A68FB6850
:1029D0001B6842F400721A60FB681B681A69FB6886
:1029E0005B6AD2B21A70FB685B6A5A1CFB685A6257
:1029F000FB681B8D013B9AB2FB681A85FB685B8DF7
:102A00009BB2013B9AB2FB685A8562B600BFFB6875
:102A10001B681A69FB685B6AD2B21A70FB685B6A52
:102A20005A1CFB685A62FB681B8D013B9AB2FB681B
:102A30001A85FB685B8D9BB2013B9AB2FB685A8595
:102A4000E2E07B6A0093BB6B00227B49F86800F0F0
:102A500077FA0346002B01D00123E9E0FB681B68ED
:102A60001A68FB681B6822F480621A6072B600BFA5
:102A7000FB681B681A69FB685B6AD2B21A70FB6854
:102A80005B6A5A1CFB685A62FB681B8D013B9AB259
:102A9000FB681A85FB685B8D9BB2013B9AB2FB68B1
:102AA0005A85664B1B68DB08654AA2FB03231A0A9A
:102AB00013469B001344DA00D31A3B623B6A013B86
:102AC0003B623B6A002B18D1FB6800221A63FB684B
:102AD000202283F83D20FB68002283F83E20FB681B
:102AE0001B6C43F02002FB681A6462B600BFFB68EF
:102AF000002283F83C2001239AE0FB681B685B6995
:102B000003F00403042BD9D1FB681B681A68FB6827
:102B10001B6842F400721A60FB681B681A69FB6844
:102B20005B6AD2B21A70FB685B6A5A1CFB685A6215
:102B3000FB681B8D013B9AB2FB681A85FB685B8DB5
:102B40009BB2013B9AB2FB685A8562B600BFFB6834
:102B50001B681A69FB685B6AD2B21A70FB685B6A11
:102B60005A1CFB685A62FB681B8D013B9AB2FB68DA
:102B70001A85FB685B8D9BB2013B9AB2FB685A8554
:102B800042E07A6AB96BF86800F084FB0346002BD8
:102B900001D001234CE0FB681B681A69FB685B6A83
:102BA000D2B21A70FB685B6A5A1CFB685A62FB68F7
:102BB0001B8D013B9AB2FB681A85FB685B8D9BB24B
:102BC000013B9AB2FB685A85FB681B685B6903F09E
:102BD0000403042B18D1FB681B681A69FB685B6A45
:102BE000D2B21A70FB685B6A5A1CFB685A62FB68B7
:102BF0001B8D013B9AB2FB681A85FB685B8D9BB20B
:102C0000013B9AB2FB685A85FB681B8D002B7FF451
:102C100094AEFB68202283F83D20FB68002283F8F5
:102C20003E20FB68002283F83C20002300E00223C2
:102C300018462837BD4680BD0400010090000020E2
:102C400089B5F81480B588B002AFF860084611461F
:102C50001A4603467B810B463B811346FB80FB688B
:102C60001B681A68FB681B6842F480721A607B6AF2
:102C700000933B6A00224FF00111F86800F060F900
:102C80000346002B0DD0FB681B681B6803F48073A0
:102C9000B3F5807F03D1FB684FF400721A640323FD
:102CA0005FE07B89DBB21A46FB681B6802F0FE021C
:102CB0001A617B6A3A6A2D49F86800F0BBF903464D
:102CC000002B01D001234CE000237B61FB681B68D3
:102CD0005B697B61FB681B689B697B617B697A6AC6
:102CE000396AF86800F046FA0346002B0DD0FB68FD
:102CF0001B6C042B07D1FB681B681A68FB681B68F8
:102D000042F400721A6001232BE0FB88012B05D1ED
:102D10003B89DAB2FB681B681A6121E03B891B0A18
:102D20009BB2DAB2FB681B681A617A6A396AF86882
:102D300000F020FA0346002B0DD0FB681B6C042B1F
:102D400007D1FB681B681A68FB681B6842F40072B5
:102D50001A60012305E03B89DAB2FB681B681A613F
:102D6000002318461837BD4680BD00BF0200010091
:102D700080B588B002AFF860084611461A4603468F
:102D80007B810B463B811346FB80FB681B681A68FE
:102D9000FB681B6842F480621A60FB681B681A6853
:102DA000FB681B6842F480721A607B6A00933B6A7E
:102DB00000224FF00111F86800F0C2F80346002B22
:102DC0000DD0FB681B681B6803F48073B3F5807F2C
:102DD00003D1FB684FF400721A640323AAE07B89D5
:102DE000DBB21A46FB681B6802F0FE021A617B6ABE
:102DF0003A6A5249F86800F01DF90346002B01D0E9
:102E0000012397E000237B61FB681B685B697B61A2
:102E1000FB681B689B697B617B697A6A396AF86821
:102E200000F0A8F90346002B0DD0FB681B6C042BA7
:102E300007D1FB681B681A68FB681B6842F40072C4
:102E40001A60012376E0FB88012B05D13B89DAB2B9
:102E5000FB681B681A6121E03B891B0A9BB2DAB24E
:102E6000FB681B681A617A6A396AF86800F082F9AF
:102E70000346002B0DD0FB681B6C042B07D1FB68AD
:102E80001B681A68FB681B6842F400721A60012311
:102E900050E03B89DAB2FB681B681A617A6A396ACA
:102EA000F86800F067F90346002B0DD0FB681B6C37
:102EB000042B07D1FB681B681A68FB681B6842F487
:102EC00000721A60012335E0FB681B681A68FB6812
:102ED0001B6842F480721A607B6A00933B6A00228E
:102EE0004FF00111F86800F02BF80346002B0DD0CD
:102EF000FB681B681B6803F48073B3F5807F03D104
:102F0000FB684FF400721A64032313E07B89DBB281
:102F100043F00103DAB2FB681B681A617B6A3A6A04
:102F20000649F86800F086F80346002B01D001231B
:102F300000E0002318461837BD4680BD020001009E
:102F400080B584B000AFF860B9603B601346FB7198
:102F500048E03B68B3F1FF3F44D0FEF737FF02463D
:102F6000BB69D31A3A689A4202D33B68002B39D125
:102F7000BB681B0CDBB2012B0DD1FB681B685B69C6
:102F8000DA43BB6813409BB2002B0CBF0123002324
:102F9000DBB21A460CE0FB681B689B69DA43BB682E
:102FA00013409BB2002B0CBF01230023DBB21A4657
:102FB000FB799A4216D1FB6800221A63FB68202233
:102FC00083F83D20FB68002283F83E20FB681B6CE1
:102FD00043F02002FB681A64FB68002283F83C205F
:102FE000012323E0BB681B0CDBB2012B0DD1FB6876
:102FF0001B685B69DA43BB6813409BB2002B0CBFB4
:1030000001230023DBB21A460CE0FB681B689B69B6
:10301000DA43BB6813409BB2002B0CBF0123002393
:10302000DBB21A46FB799A4293D000231846103738
:10303000BD4680BD80B584B000AFF860B9607A60ED
:103040003B6071E0FB681B685B6903F48063B3F568
:10305000806F23D1FB681B681A68FB681B6842F409
:1030600000721A60FB681B686FF480625A61FB682B
:1030700000221A63FB68202283F83D20FB680022AF
:1030800083F83E20FB681B6C43F00402FB681A6463
:10309000FB68002283F83C20012367E07B68B3F1E2
:1030A000FF3F41D0FEF792FE02463B68D31A7A6892
:1030B0009A4202D37B68002B36D1BB681B0CDBB273
:1030C000012B0CD1FB681B685B69DA43BB681340BA
:1030D0009BB2002B14BF01230023DBB20BE0FB6883
:1030E0001B689B69DA43BB6813409BB2002B14BF7B
:1030F00001230023DBB2002B16D0FB6800221A63E9
:10310000FB68202283F83D20FB68002283F83E20E4
:10311000FB681B6C43F02002FB681A64FB6800220A
:1031200083F83C20012321E0BB681B0CDBB2012BA0
:103130000CD1FB681B685B69DA43BB6813409BB228
:10314000002B14BF01230023DBB20BE0FB681B68DC
:103150009B69DA43BB6813409BB2002B14BF012369
:103160000023DBB2002B7FF46DAF0023184610372D
:10317000BD4680BD80B584B000AFF860B9607A60AC
:1031800034E0F86800F0E3F80346002B01D0012397
:1031900034E0BB68B3F1FF3F28D0FEF717FE0246CC
:1031A0007B68D31ABA689A4202D3BB68002B1DD140
:1031B000FB681B685B6903F08003802B16D0FB68FB
:1031C00000221A63FB68202283F83D20FB6800225E
:1031D00083F83E20FB681B6C43F02002FB681A64F6
:1031E000FB68002283F83C20012307E0FB681B6892
:1031F0005B6903F08003802BC3D10023184610378E
:10320000BD4680BD80B584B000AFF860B9607A601B
:1032100034E0F86800F09BF80346002B01D001234E
:1032200034E0BB68B3F1FF3F28D0FEF7CFFD024684
:103230007B68D31ABA689A4202D3BB68002B1DD1AF
:10324000FB681B685B6903F00403042B16D0FB6862
:1032500000221A63FB68202283F83D20FB680022CD
:1032600083F83E20FB681B6C43F02002FB681A6465
:10327000FB68002283F83C20012307E0FB681B6801
:103280005B6903F00403042BC3D1002318461037F5
:10329000BD4680BD80B584B000AFF860B9607A608B
:1032A00049E0FB681B685B6903F01003102B19D120
:1032B000FB681B686FF010025A61FB6800221A63FA
:1032C000FB68202283F83D20FB68002283F83E2023
:1032D000FB681A6CFB681A64FB68002283F83C20C8
:1032E000012330E0FEF772FD02467B68D31ABA680C
:1032F0009A4202D3BB68002B1DD1FB681B685B6937
:1033000003F04003402B16D0FB6800221A63FB68D1
:10331000202283F83D20FB68002283F83E20FB68D2
:103320001B6C43F02002FB681A64FB68002283F8E0
:103330003C20012307E0FB681B685B6903F0400346
:10334000402BAED1002318461037BD4680BD80B457
:1033500083B000AF78607B681B685B6903F48063AF
:10336000B3F5806F1BD17B681B686FF480625A6174
:103370007B6800221A637B68202283F83D207B68EB
:10338000002283F83E207B681B6C43F004027B68BC
:103390001A647B68002283F83C20012300E00023AC
:1033A00018460C37BD4680BC7047000080B586B01B
:1033B00000AF78607B68002B01D101236CE27B6851
:1033C0001B6803F00103002B00F08780924B5B68C1
:1033D00003F00C03042B0CD08F4B5B6803F00C0341
:1033E000082B12D18C4B5B6803F48033B3F5803F1C
:1033F0000BD1894B1B6803F40033002B6CD07B6826
:103400005B68002B68D1012346E27B685B68B3F5FB
:10341000803F06D1804B1B687F4A43F480331360A2
:103420002EE07B685B68002B0CD17B4B1B687A4AD3
:1034300023F480331360784B1B68774A23F480238E
:1034400013601DE07B685B68B3F5A02F0CD1724B55
:103450001B68714A43F4802313606F4B1B686E4AEC
:1034600043F4803313600BE06B4B1B686A4A23F410
:1034700080331360684B1B68674A23F48023136012
:103480007B685B68002B13D0FEF7A0FC386108E076
:10349000FEF79CFC02463B69D31A642B01D9032337
:1034A000FAE15D4B1B6803F40033002BF0D014E00D
:1034B000FEF78CFC386108E0FEF788FC02463B69A9
:1034C000D31A642B01D90323E6E1534B1B6803F4A1
:1034D0000033002BF0D100E000BF7B681B6803F0D5
:1034E0000203002B63D04C4B5B6803F00C03002BF2
:1034F0000BD0494B5B6803F00C03082B1CD1464BE7
:103500005B6803F48033002B16D1434B1B6803F038
:103510000203002B05D07B681B69012B01D001231E
:10352000BAE13D4B1B6823F0F8027B685B69DB0066
:10353000394913430B603AE07B681B69002B20D0AC
:10354000364B01221A60FEF741FC386108E0FEF7B5
:103550003DFC02463B69D31A022B01D903239BE1B0
:103560002D4B1B6803F00203002BF0D02A4B1B6885
:1035700023F0F8027B685B69DB00274913430B608B
:1035800015E0264B00221A60FEF720FC386108E0A7
:10359000FEF71CFC02463B69D31A022B01D9032318
:1035A0007AE11D4B1B6803F00203002BF0D17B680E
:1035B0001B6803F00803002B3AD07B689B69002B43
:1035C00019D0174B01221A60FEF700FC386108E0A1
:1035D000FEF7FCFB02463B69D31A022B01D90323F9
:1035E0005AE10D4B5B6A03F00203002BF0D001207F
:1035F00000F0CCFA1CE00A4B00221A60FEF7E6FB52
:1036000038610FE0FEF7E2FB02463B69D31A022B5A
:1036100008D9032340E100BF0010024000004242ED
:10362000800442429E4B5B6A03F00203002BE9D107
:103630007B681B6803F00403002B00F0A6800023C6
:10364000FB75974BDB6903F08053002B0DD1944B36
:10365000DB69934A43F08053D361914BDB6903F0FC
:103660008053BB60BB680123FB758E4B1B6803F462
:103670008073002B18D18B4B1B688A4A43F48073EC
:103680001360FEF7A3FB386108E0FEF79FFB0246DC
:103690003B69D31A642B01D90323FDE0814B1B68DE
:1036A00003F48073002BF0D07B68DB68012B06D11C
:1036B0007B4B1B6A7A4A43F0010313622DE07B685F
:1036C000DB68002B0CD1764B1B6A754A23F0010393
:1036D0001362734B1B6A724A23F0040313621CE0EB
:1036E0007B68DB68052B0CD16D4B1B6A6C4A43F081
:1036F000040313626A4B1B6A694A43F001031362B5
:103700000BE0674B1B6A664A23F001031362644BAC
:103710001B6A634A23F0040313627B68DB68002B97
:1037200015D0FEF753FB38610AE0FEF74FFB024667
:103730003B69D31A41F28832934201D90323ABE0AB
:10374000574B1B6A03F00203002BEED014E0FEF788
:103750003DFB38610AE0FEF739FB02463B69D31AAC
:1037600041F28832934201D9032395E04C4B1B6A06
:1037700003F00203002BEED1FB7D012B05D1484B5A
:10378000DB69474A23F08053D3617B68DB69002BF8
:1037900000F08180424B5B6803F00C03082B61D082
:1037A0007B68DB69022B46D13F4B00221A60FEF793
:1037B0000DFB386108E0FEF709FB02463B69D31AAE
:1037C000022B01D9032367E0354B1B6803F000731C
:1037D000002BF0D17B681B6AB3F5803F08D1304BDA
:1037E0005B6823F400327B689B682D4913434B6070
:1037F0002B4B5B6823F474127B68196A7B685B6AE5
:103800000B43274913434B60274B01221A60FEF7F5
:10381000DDFA386108E0FEF7D9FA02463B69D31AAF
:10382000022B01D9032337E01D4B1B6803F0007303
:10383000002BF0D02FE01C4B00221A60FEF7C6FAD6
:10384000386108E0FEF7C2FA02463B69D31A022B40
:1038500001D9032320E0124B1B6803F00073002BF7
:10386000F0D118E07B68DB69012B01D1012313E063
:103870000B4B5B68FB60FB6803F480327B681B6A60
:103880009A4206D1FB6803F470127B685B6A9A4225
:1038900001D0012300E0002318461837BD4680BD43
:1038A00000100240007000406000424280B584B0C9
:1038B00000AF786039607B68002B01D10123D0E034
:1038C0006A4B1B6803F007033A689A4210D9674BAA
:1038D0001B6823F0070265493B6813430B60634B89
:1038E0001B6803F007033A689A4201D00123B8E04D
:1038F0007B681B6803F00203002B20D07B681B68E9
:1039000003F00403002B05D0594B5B68584A43F47D
:10391000E06353607B681B6803F00803002B05D04D
:10392000534B5B68524A43F460535360504B5B689F
:1039300023F0F0027B689B684D4913434B607B6822
:103940001B6803F00103002B40D07B685B68012BF0
:1039500007D1474B1B6803F40033002B15D101231B
:103960007FE07B685B68022B07D1414B1B6803F04B
:103970000073002B09D1012373E03D4B1B6803F05A
:103980000203002B01D101236BE0394B5B6823F06C
:1039900003027B685B68364913434B60FEF716FAF7
:1039A000F8600AE0FEF712FA0246FB68D31A41F209
:1039B0008832934201D9032353E02D4B5B6803F017
:1039C0000C027B685B689B009A42EBD1274B1B681B
:1039D00003F007033A689A4210D2244B1B6823F085
:1039E000070222493B6813430B60204B1B6803F01E
:1039F00007033A689A4201D0012332E07B681B68D2
:103A000003F00403002B08D0194B5B6823F4E06239
:103A10007B68DB68164913434B607B681B6803F0C7
:103A20000803002B09D0124B5B6823F460527B68BB
:103A30001B69DB000E4913434B6000F021F802467E
:103A40000B4B5B681B0903F00F030A49CB5C22FA9E
:103A500003F3094A1360094B1B681846FEF774F913
:103A6000002318461037BD4680BD00BF002002402D
:103A700000100240347400089000002094000020E0
:103A800080B487B000AF0023FB600023BB6000233D
:103A90007B6100237B6000233B611E4B5B68FB6006
:103AA000FB6803F00C03042B02D0082B03D027E0A3
:103AB000194B3B6127E0FB689B0C03F00F03174A8F
:103AC000D35C7B60FB6803F48033002B10D0114B78
:103AD0005B685B0C03F00103114AD35CBB607B683D
:103AE0000D4A02FB03F2BB68B2FBF3F37B6104E017
:103AF0007B680C4A02FB03F37B617B693B6102E05C
:103B0000054B3B6100BF3B6918461C37BD4680BC76
:103B1000704700BF0010024000127A004C74000889
:103B20005C74000800093D0080B400AF024B1B68C4
:103B30001846BD4680BC70479000002080B500AF9D
:103B4000FFF7F2FF0246054B5B681B0A03F0070311
:103B50000349CB5C22FA03F3184680BD00100240F3
:103B60004474000880B500AFFFF7DEFF0246054B46
:103B70005B68DB0A03F007030349CB5C22FA03F31B
:103B8000184680BD001002404474000880B485B01F
:103B900000AF78600A4B1B680A4AA2FB03235B0A4A
:103BA0007A6802FB03F3FB6000BFFB685A1EFA60F1
:103BB000002BF9D100BF00BF1437BD4680BC704751
:103BC00090000020D34D621080B582B000AF7860C5
:103BD0007B68002B01D1012342E07B6893F84130E0
:103BE000DBB2002B06D17B68002283F84020786886
:103BF000FDF734FF7B68242283F841207B681B6833
:103C0000DA687B681B6822F40052DA60786800F09A
:103C10001DF97B681B681A697B681B6822F4904257
:103C20001A617B681B685A697B681B6822F02A024C
:103C30005A617B681B68DA687B681B6842F4005233
:103C4000DA607B6800225A647B68202283F8412076
:103C50007B68202283F842207B6800225A6300237D
:103C600018460837BD4680BD80B58AB002AFF860FF
:103C7000B9603B601346FB8000237B61FB6893F8CF
:103C80004130DBB2202B6DD1BB68002B02D0FB880A
:103C9000002B01D1012366E0FB6800225A64FB6817
:103CA000212283F84120FEF791F87861FB68FA88B9
:103CB0009A84FB68FA88DA84FB689B68B3F5805FB6
:103CC00008D1FB681B69002B04D10023FB61BB6892
:103CD000BB6103E0BB68FB610023BB612AE03B687A
:103CE00000937B6900228021F86800F040F80346C9
:103CF000002B01D0032336E0FB69002B0BD1BB69FD
:103D00001B881A46FB681B68C2F308025A60BB692D
:103D10000233BB6107E0FB691A78FB681B685A60D5
:103D2000FB690133FB61FB68DB8C9BB2013B9AB200
:103D3000FB68DA84FB68DB8C9BB2002BCFD13B683D
:103D400000937B6900224021F86800F010F80346D8
:103D5000002B01D0032306E0FB68202283F84120DA
:103D6000002300E0022318462037BD4680BD80B501
:103D700090B000AFF860B9603B601346FB7150E053
:103D8000BB6CB3F1FF3F4CD0BB6C002B07D0FEF7F0
:103D90001DF802463B68D31ABA6C9A4241D2FB68BE
:103DA0001B680C33BB62BB6A53E8003F7B627B6AD3
:103DB00023F4D073FB63FB681B680C33FA6B7A63E4
:103DC0003B63396B7A6B41E80023FB62FB6A002B93
:103DD000E5D1FB681B6814337B617B6953E8003FC6
:103DE0003B613B6923F00103BB63FB681B68143331
:103DF000BA6B3A62FB61F9693A6A41E80023BB6138
:103E0000BB69002BE5D1FB68202283F84120FB68C9
:103E1000202283F84220FB68002283F840200323FD
:103E20000FE0FB681B681A68BB681340BA689A42C7
:103E30000CBF01230023DBB21A46FB799A429FD0C4
:103E4000002318464037BD4680BD000080B584B0D1
:103E500000AF78607B681B681B6923F440517B6866
:103E6000DA687B681B680A431A617B689A687B681A
:103E70001B691A437B685B691343BB607B681B68E3
:103E8000DB6823F4B05323F00C037A681268B96836
:103E90000B43D3607B681B685B6923F440717B68CC
:103EA0009A697B681B680A435A617B681B682C4AC5
:103EB000934203D1FFF756FEF86002E0FFF73EFEA3
:103EC000F860FA6813469B0013449A001A447B6812
:103ED0005B689B00B2FBF3F3224AA2FB03235B095E
:103EE0001901FA6813469B0013449A001A447B6830
:103EF0005B689B00B2FBF3F21A4BA3FB02035B0966
:103F0000642000FB03F3D31A1B013233154AA2FBD2
:103F100003235B0903F0F0031944FA6813469B007E
:103F200013449A001A447B685B689B00B2FBF3F26F
:103F30000C4BA3FB02035B09642000FB03F3D31AC1
:103F40001B013233074AA2FB03235B0903F00F0274
:103F50007B681B680A449A6000BF1037BD4680BD6D
:103F6000003801401F85EB51014B1868704700BFB6
:103F70009C00002070B500260C4D0D4C641BA41055
:103F8000A64209D103F032FA00260A4D0A4C641BFE
:103F9000A410A64205D170BD55F8043B98470136E0
:103FA000EEE755F8043B98470136F2E7B878000889
:103FB000B8780008B8780008BC78000803460244C6
:103FC000934200D1704703F8011BF9E7002B2DE95C
:103FD000F0471F46BBBF03F100431F4600232D23BC
:103FE00088B01446129A109D1370149BDDF84CA0F3
:103FF00023F02008B8F1460F05D0B8F1450F00D1E5
:104000000135022300E0032307AA049206AACDE9A2
:1040100002A2CDE9003522463B4600F021FDB8F171
:10402000470F064602D1119BDB0722D5B8F1460F98
:1040300006EB050910D13378302B0AD1002200237A
:1040400020463946FCF7B0FC18B9C5F10105CAF89D
:104050000050DAF800309944002200232046394607
:10406000FCF7A2FC08B1CDF81C903022079B4B4511
:1040700007D33046079B159A9B1B136008B0BDE819
:10408000F087591C07911A70F0E70346F7B500292D
:1040900003F8022BB6BF2D222B2249420929427078
:1040A0002BDD0DF10704A4460A2791FBF7F60A461B
:1040B000A64607FB1615632A05F13005314604F1C3
:1040C000FF340EF8015CF0DC3031AEF1020504F88B
:1040D000011C2946441C61450AD30DF10902A2EBDB
:1040E0000E02654588BF00221344181A03B0F0BDC4
:1040F00011F8012B04F8012FEDE7302330318370E4
:10410000C170031DF1E700002DE9F04F91B00C469E
:10411000DDF8688016461F46054601F08FFA0368F1
:1041200018460993FCF714F800230E93D8F80030D2
:104130000A90073323F0070303F1080294F818905C
:10414000D4F800B0C8F80020D3E90023C4E9122352
:10415000D4E9128A2AF000430B934FF0FF32404615
:104160009C4B0B99FCF752FC70BB4FF0FF32404662
:10417000984B0B99FCF72CFC30BB002200234046E7
:104180005146FCF71BFC10B12D2384F84330924BB1
:104190009248B9F1470F94BF9846804603234FF0E9
:1041A000000A23612BF0040323603346214628468E
:1041B00000970FAA00F0D4F9013040F090804FF042
:1041C000FF3011B0BDE8F08F42465346404651469D
:1041D000FCF71CFC48B1BAF1000FB8BF2D23804892
:1041E000B8BF84F843307F4BD3E7636809F0DF0141
:1041F0005A1C42D106236360002206920EAACDE922
:1042000004920DAA4BF4806303920DF13302CDE9C1
:1042100001322360636842460093284653460B915F
:10422000FFF7D4FE0B99804647290D9908D1C81C89
:1042300002DB6368994240DDA9F102095FFA89F95E
:10424000B9F1650F1FD84A46013904F150000D91AC
:10425000FFF71BFF0E9A82461318012A236102DC26
:104260002268D20701D5013323619DF83330002B3A
:104270009BD02D2384F8433097E74729BCD1002BEE
:10428000BAD10123B7E7B9F1660F18D100296368E5
:104290000BDD216113B92268D00702D501330B442D
:1042A00023614FF0000AA165DFE713B92268D20746
:1042B00001D50233F4E70123F2E74FF067090E9BC3
:1042C000994205DB23682161D807EAD54B1CE7E753
:1042D0000029CCBF0122C1F102021344E0E72368A8
:1042E0005A0507D42369424631462846B84701306B
:1042F0002BD164E7B9F1650F40F2DD80D4E91201FA
:1043000000220023FCF750FB002833D00123314664
:104310002846354AB84701303FF451AFDDE90D2357
:104320009A4202DB2368D8070FD5DDE9092331461D
:104330002846B84701303FF442AF4FF0000804F17F
:104340001A090E9B013B434509DC23689B0700F1DA
:104350000281E0680F9B9842B8BF184631E70123FD
:104360004A4631462846B84701303FF428AF08F1A5
:104370000108E6E70D9B002B38DC01233146284677
:10438000194AB84701303FF41AAFDDE90D23134352
:1043900002D12368D907D8D5DDE90923314628465B
:1043A000B84701303FF40BAF4FF0000904F11A0A8F
:1043B0000D9B5B424B4501DC0E9B94E7012352466B
:1043C00031462846B84701303FF4F9AE09F10109FA
:1043D000EEE700BFFFFFEF7F647400086874000819
:1043E000707400086C740008747400080E9AA36D51
:1043F0009A42A8BF1A46002A914637DC4FF0000BBC
:1044000029EAE97904F11A02D4F858A0AAEB0903C1
:104410005B4533DCDDE90D239A423BDB2368DA0799
:1044200038D40E9A0D99A2EB0A03A2EB0109994523
:10443000A8BF9946B9F1000F34DC4FF0000829EA13
:10444000E97904F11A0ADDE90D239B1AA3EB0903AC
:1044500043457FF77AAF0123524631462846B84795
:1044600001303FF4ACAE08F10108ECE713463146E9
:1044700042462846B8470130C0D1A0E60123314664
:1044800028460B92B84701303FF499AE0B9A0BF1D6
:10449000010BB9E73146DDE909232846B847013069
:1044A000BFD18CE64B463146284608EB0A02B84796
:1044B0000130C2D183E60E9A012A01DCDB0737D531
:1044C0000123424631462846B84701303FF477AED3
:1044D000DDE9092331462846B84701303FF46FAE85
:1044E000D4E9120100220023FCF75EFAD8B90E9B32
:1044F00008F10102013B31462846B84701300ED190
:104500005DE601234A4631462846B84701303FF46C
:1045100056AE08F101080E9B013B4345F1DC5346C2
:1045200004F15002E0E64FF0000804F11A09F2E746
:1045300001234246DFE701234A4631462846B84771
:1045400001303FF43CAE08F10108E3680F995B1AB3
:104550004345F0DCFDE64FF0000804F11909F4E7EB
:104560002DE9F047164699468A680B69074693423B
:10457000B8BF1346336091F843200C46DDF8208025
:104580000AB1013333602368990642BF33680233AE
:104590003360256815F0060506D104F1190AE368B1
:1045A00032689B1AAB4228DC94F84320131E226821
:1045B00018BF012392062DD44946384604F1430220
:1045C000C047013020D02368E56803F00603042BC0
:1045D00018BF002532684FF00006A36808BFAD1A67
:1045E000226908BF25EAE5759342C4BF9B1AED18FE
:1045F0001A34B5421AD1002008E001235246494638
:104600003846C047013003D14FF0FF30BDE8F08796
:104610000135C4E73020E11881F843005A1C94F8B2
:1046200045102244023382F84310C5E70123224695
:1046300049463846C0470130E6D00136D9E7000088
:104640002DE9FF470C46277E9146782F80469A46F3
:104650000C9904F1430207D8622F0AD8002F00F00A
:10466000D980582F00F0A48004F1420684F84270EB
:104670003AE0A7F16303152BF6D801A050F823F018
:10468000D9460008ED46000869460008694600085A
:104690006946000869460008ED46000869460008BA
:1046A000694600086946000869460008FB4700089B
:1046B0001D470008DD4700086946000869460008F4
:1046C0001D480008694600081D47000869460008A3
:1046D00069460008E54700080B6804F142061A1D08
:1046E0001B680A6084F842300123A4E0256808684A
:1046F0002E0600F104030AD505680B60002D03DACD
:104700002D236D4284F843300A235E4819E015F0EA
:10471000400F05680B6018BF2DB2EFE70B682568E6
:10472000181D0860280601D51D6802E06906FBD542
:104730001D886F2F0CBF08230A235248002184F8DC
:1047400043106668002EA8BF2168A660A4BF21F0B0
:10475000040121600DB9002E4DD01646B5FBF3F1D2
:1047600003FB1157C75D06F8017D2F46BB420D467E
:10477000F4D9082B0BD12368DF0708D523696168BA
:104780009942DEBF302306F8013C06F1FF36921B4A
:1047900022614B4621464046CDF800A003AAFFF710
:1047A000DFFE01304CD14FF0FF3004B0BDE8F087A0
:1047B000344884F845700E68236856F8045B1F0679
:1047C0000E6014D5D90744BF43F0200323601DB900
:1047D000236823F0200323601023AFE7236843F00E
:1047E000200323607823284884F84530E3E75E06F9
:1047F00048BFADB2E6E71646BBE70B6826681D1D4D
:1048000060690D6035061B6801D5186002E071060D
:10481000FBD51880002316462361BAE70B681A1DE2
:104820000A601E6800213046626800F013FF08B17C
:10483000801B606063682361002384F84330A8E72D
:104840003246494640462369D0470130ABD0236801
:104850009B0713D4E068039B9842B8BF1846A4E7AF
:104860000123324649464046D04701309BD00135AE
:10487000E36803995B1AAB42F2DCEBE7002504F135
:104880001906F5E776740008877400080EB46FF017
:10489000004100B59CB01DAB0290069007910491B9
:1048A0000848094953F8042B0591006802A90193AF
:1048B00001F07EFB0022029B1A701CB05DF804EB35
:1048C00003B070479C0000200802FFFF30B5141EA3
:1048D00005469BB0184605DA8B234FF0FF302B605E
:1048E0001BB030BD4FF40273ADF80C300CBF234643
:1048F00004F1FF33029305934FF6FF7302460091D4
:104900000491ADF80E3069461E9B284601F050FB1D
:10491000431CBCBF8B232B60002CE1D00022009BEA
:104920001A70DDE707B5009313460A4601460348AF
:104930000068FFF7CBFF03B05DF804FB9C0000208C
:104940002DE9F74F03690C690746A342C0F2838043
:10495000013C00F1140501F1140805EB84030193F7
:1049600058F8243055F8242001339A42B2FBF3F66C
:104970004FEA840B08EB840932D34FF0000E404617
:10498000AC46F24650F8042B93B206FB03E3120C3C
:104990004FEA134E06FB02E29BB2AAEB0303DCF8DC
:1049A00000A04FEA124E1FFA8AFA53441FFA82FA05
:1049B000DCF800208145CAEB124202EB23429BB295
:1049C00043EA02434FEA224A4CF8043BDAD255F854
:1049D0000B302BB9019B043B9D421A462FD33C61FF
:1049E000384601F0CDF8002825DB28464FF0000CB2
:1049F000013658F8041BD0F800E08BB2ACEB03038F
:104A00001FFA8EF213440A0CC2EB1E4202EB234241
:104A10009BB243EA0243C1454FEA224C40F8043BB3
:104A2000E7D255F8242005EB840322B9043B9D42CC
:104A30001A460AD33C61304603B0BDE8F08F1268D5
:104A4000043B002ACBD1013CC6E71268043B002A94
:104A5000F0D1013CEBE70020EEE700000000000091
:104A60002DE9F04F16461F46446A99B00546CDE938
:104A70000467DDF8948074B9102000F0E3FD02466D
:104A8000686220B9EA21AE4BAE4801F0A1FBC0E953
:104A900001440460C4606B6A196851B15A6801230B
:104AA00093404A608B60284600F030FE00226B6A1B
:104AB0001A603B1EAFBF0023012223F00043059381
:104AC000A8BFC8F80030DDF814909F4BB8BFC8F8F5
:104AD000002033EA090319D142F20F73249A1360BC
:104AE000C9F31303334300F08085269B53B9974BDA
:104AF00022E0974B08930833269A1360089819B060
:104B0000BDE8F08F914B08930333F5E7DDE90434FA
:104B1000CDE90C34DDE90C0100220023FBF744FF52
:104B2000804658B10123249A1360269B002B00F085
:104B3000598588481860431E0893DFE716AB019338
:104B400017AB00932846DDE90C2301F0C5F8C9F343
:104B50000A548246002C7ED0DDE90C010D9BA4F2A4
:104B6000FF34C3F3130343F07F5141F44011CDF8F8
:104B70004C800022784BFBF7F7FA6BA3D3E90023B4
:104B8000FBF7AAFC6AA3D3E90023FBF7EFFA06467A
:104B900020460F46FBF736FC67A3D3E90023FBF75B
:104BA0009BFC02460B4630463946FBF7DFFA0646C9
:104BB0000F46FBF741FF002281460023304639466D
:104BC000FBF7FCFE48B14846FBF71CFC32463B466F
:104BD000FBF7EAFE08B909F1FF39B9F1160F57D80A
:104BE000DDE90C015D4B03EBC903D3E90023FBF7BF
:104BF000E5FE00284ED0002309F1FF390F93169BE4
:104C00001C1B631E099349BFC4F1010300230693D3
:104C1000002354BF06930993B9F1000F3CDB099BB5
:104C2000CDF838904B44099300230A93229B092B1B
:104C30006CD8052BC4BF043B2293229BC8BF002421
:104C4000A3F10203D8BF0124032B00F28B80DFE81D
:104C500003F02D4F4D5BDDE916431C4404F2324353
:104C6000202BC3BFC3F1400304F2124009FA03F33F
:104C7000C3F12003C6BF26FA00F0184306FA03F07A
:104C8000FBF7B0FB0123A1F1F871013C139370E72E
:104C90000123B3E70F90B2E7069BA3EB090306934A
:104CA000C9F100030A9300230E93BFE700230B937F
:104CB000239B002B59DC4FF0010B5B46CDF808B06D
:104CC000CDF88CB00022686A4260042202F114061A
:104CD0009E4241684FD9284600F0D8FC0890002831
:104CE0004DD102464FF4D5711D4BCDE60123DEE7D1
:104CF00000230B93239B09EB030B0BF10103012B07
:104D00000293B8BF0123DDE70123F2E7012400236A
:104D10000B9422934FF0FF3B00221223CDF808B0F2
:104D20002392CFE7AFF3008061436F63A787D23F41
:104D3000B3C8608B288AC63FFB799F501344D33F8A
:104D4000A5740008BC7400080000F07FA17400087E
:104D500098740008757400080000F83FB8750008E2
:104D60001B75000801230B93D4E7DDF88CB05B467C
:104D7000CDF808B0A6E7013141605200A6E76B6AA2
:104D8000089A1A60029B0E2B00F2A880002C00F0FB
:104D9000A580B9F1000F34DD9A4A09F00F0302EB48
:104DA000C30319F4807FD3E90034CDE910344FEA0E
:104DB000291416D0DDE90C01934B0327D3E908230E
:104DC000FBF7B4FCCDE9040104F00F048E4E54B996
:104DD000DDE91023DDE90401FBF7A8FCCDE90401BE
:104DE00029E00227F2E7E10708D5DDE91001D6E95D
:104DF0000023FBF771FBCDE9100101376410083681
:104E0000E5E700F0A580DDE90C01C9F100047D4B68
:104E100004F00F0203EBC203D3E90023FBF75CFBB2
:104E200002270023CDE90401774E2411002C40F025
:104E30008480002BD2D10F9B002B00F08B80DDE90A
:104E40000434CDE91034DDE9100100226F4BFBF78B
:104E5000B5FD00287ED0029B002B7BD0BBF1000F5C
:104E600038DDDDE910010022694BFBF735FB5C46BC
:104E7000CDE9040109F1FF3801373846FBF7C2FAE2
:104E8000DDE90423FBF728FB0022624BFBF76EF9F8
:104E9000A1F15076CDE910011196002C5DD1DDE92C
:104EA000040100225C4BFBF75FF902460B46CDE99B
:104EB00004233346109AFBF79FFD002840F09E82A2
:104EC000DDE90401109A06F10043FBF777FD0028A5
:104ED00040F09282DDE90C34CDE90434179B002BBD
:104EE000C0F25381B9F10E0F00F34F81454B03EB34
:104EF000C903D3E90034CDE90634239B002B80F2AB
:104F0000DB80029B002B00F3D78040F07482DDE948
:104F100006010022404BFBF7DFFADDE90423FBF733
:104F200061FD029C2646002840F04A823123089FFA
:104F300009F1010907F8013B46E2E20705D5D6E988
:104F40000023FBF7C9FA01230137641008366DE727
:104F5000022770E7C846029C8FE70899294B214435
:104F600012910B9903EBC403DDE9106753E90223A7
:104F7000002955D000202949FBF7D8FB3B46324693
:104F8000FBF7F2F8CDE91001089FDDE90401FBF71A
:104F900053FD0446FBF736FA02460B46DDE90401F1
:104FA000FBF7E2F802460B463034CDE90423DDE995
:104FB000102307F8014BFBF701FD002874D1DDE950
:104FC000042300201149FBF7CFF8DDE91023FBF79C
:104FD000F5FC002840F0B680129B9F423FF47AAF68
:104FE000DDE9100100220A4BFBF776FA0022CDE939
:104FF0001001DDE90401064BFBF76EFACDE904016F
:10500000C3E700BFB8750008907500080000F03FC6
:105010000000244000001C40000014400000E03F5D
:1050200030463946FBF758FA129BCDE91001089C2F
:105030001493DDE90401FBF7FFFC1590FBF7E2F99F
:1050400002460B46DDE90401FBF78EF8159B064688
:10505000303304F8013B129B0F469C424FF0000294
:1050600024D1DDE91001B34BFBF780F802460B4673
:1050700030463946FBF7C0FC002862D1DDE9102339
:105080000020AC49FBF770F802460B463046394623
:10509000FBF794FC00283FF41DAF149F7B1E149374
:1050A00017F8013C302BF8D0C1463AE0A24BFBF791
:1050B00013FACDE90401BCE7089FDDE90623DDE929
:1050C0000401FBF733FBFBF7B7FC0446FBF79AF947
:1050D000DDE90623FBF700FA04F130060B46024631
:1050E000DDE90401FBF740F807F8016B089E029B1D
:1050F000BE1BB3423AD102460B46FBF737F80246D5
:105100000B46CDE90223DDE90623FBF775FC58BB0E
:10511000DDE90623DDE90201FBF746FC08B1E10702
:1051200022D42846514600F0F1FA00233B70249B1C
:1051300009F101001860269B002B3FF4DFAC1F60D3
:10514000DCE427463B461F4613F8012D392A07D1D8
:10515000089A9A42F7D13022089908F101080A709A
:105160001A7801321A709FE7C846EBE70022724BAB
:10517000FBF7B2F902460B46CDE9042300220023D7
:10518000FBF712FC002898D0CBE70B9A002A00F01E
:10519000CD80229A012A00F3AF80139A002A00F0F2
:1051A000A78003F233430A9C069F069A01211A4402
:1051B0000692099A28461A44099200F061FB0646B5
:1051C000002F0CDD099B002B09DDBB42A8BF3B462D
:1051D000069AFF1AD21A0692099AD31A09930A9BC1
:1051E000F3B10B9B002B00F0A980002C10DD3146A1
:1051F0002246284600F0FEFB524601460646284657
:1052000000F054FB80465146284600F07FFAC24623
:105210000A9B1A1B04D05146284600F0EBFB82463D
:105220000121284600F02CFB0E9B0446002B40F386
:1052300087801A460146284600F0DCFB229B044684
:10524000012B40F380804FF00008236904EB8303B7
:10525000186900F0C7FAC0F12000099B184410F04B
:105260001F0000F09280C0F12003042B40F38A80DD
:10527000C0F11C00069B074403440693099B0344AA
:105280000993069B002B05DD51461A46284600F07F
:105290000BFC8246099B002B05DD21461A46284659
:1052A00000F002FC04460F9B002B70D021465046B4
:1052B00000F066FC00286ADA002351460A222846DC
:1052C00000F046FA0B9B824609F1FF39002B00F0F3
:1052D0009381314600230A22284600F039FABBF1B7
:1052E000000F064600F39380229B022B57DC8EE0D2
:1052F000169BC3F1360356E7029B5C1E0A9BA34232
:10530000B7BF0A9B1C1BE21A0E9BBEBF0A949B18D8
:105310000E93029BB8BF0024002BBBBF069B029AD2
:10532000069F9F1AACBF029B00233EE70A9C069F84
:105330000B9E45E70000E03F000024400A9A6AE720
:10534000229B012B19DC049BBBB9059BC3F3130300
:105350009BB9059B23F000431B0D1B0583B14FF048
:105360000108069B01330693099B013309930E9BA9
:10537000002B7FF46AAF01206FE74FF00008F6E7DB
:105380009846F4E73FF47DAF18461C3072E7029B65
:10539000002B36DC229B022B33DDDDF808B0BBF19D
:1053A000000F0DD121465B460522284600F0D0F9BA
:1053B00001460446504600F0E3FB00283FF7B6AD37
:1053C000239B089F6FEA03094FF0000821462846F7
:1053D00000F09CF9002E3FF4A4AEB8F1000F05D008
:1053E000B04503D04146284600F090F931462846A2
:1053F00000F08CF995E600242646E1E7C1462646F2
:1054000094E50B9BDDF808B0002B00F0FC80002F2A
:1054100005DD31463A46284600F046FB0646B8F11F
:10542000000F5CD02846716800F030F9074628B9B3
:10543000024640F2EA217E4BFFF726BB326906F1B5
:105440000C01023292000C3000F012F901223946B0
:10545000284600F029FBB0460646089B013302931C
:10546000089B5B440A93049B03F001030993029B8E
:105470002146504603F1FF3BFFF762FA03464146DF
:105480003033049050460B9300F07AFB324606907E
:105490002146284600F090FBC26807460B9B02BBE2
:1054A0000146504600F06CFB02460B9B39462846ED
:1054B000CDE90B3200F02AF9229B0C9A029F43EAB5
:1054C0000201099B0B430B9B0DD1392B27D0069A68
:1054D000002A01DD049B31338BF8003076E730463B
:1054E000B9E70122E2E70699002904DB229801438B
:1054F0000998014320D1002AEEDD514601222846B9
:10550000029300F0D1FA2146824600F039FB0028D0
:10551000029B02DCE0D1DA07DED5392BDAD1392360
:105520008BF800303B461F4617F8012C013B392A07
:1055300050D001321A7049E7002A03DD392BEED032
:105540000133C9E7029A0A9902F8013C8A422AD03B
:10555000514600230A22284600F0FAF8B045824658
:105560004FF000034FF00A024146284607D100F0F1
:10557000EFF880460646029B0133029377E700F07E
:10558000E7F83146804600230A22284600F0E0F87A
:105590000646F0E7BBF1000FCCBF5F4601274FF096
:1055A0000008089A1744514601222846029300F049
:1055B0007BFA2146824600F0E3FA0028B2DC02D1F1
:1055C000029BDB07AED43B461F4613F8012D302A61
:1055D000FAD0FBE6089A9A42A5D1312309F10109D4
:1055E0001370F3E6134BFFF7A7BA269B002B7FF44B
:1055F00080AA114BFFF7A0BABBF1000F03DC229B7E
:10560000022B3FF7CCAE089F21465046FFF798F992
:10561000089A00F1300307F8013BBA1A9345B9DD47
:10562000514600230A22284600F092F88246EBE712
:105630001B750008747400089874000800487047CF
:10564000F0010020024B0146186800F0FBBB00BFD0
:105650009C000020034610B5C9B20244934218468C
:1056600001D1002003E0047801338C42F6D110BD53
:105670000A44914200F1FF3300D1704710B511F890
:10568000014B914203F8014FF9D110BD70B5466A44
:1056900004460D4676B91020FFF7D4FF024660623B
:1056A00020B96621174B184800F092FDC0E9016649
:1056B0000660C660666AF36883B1636ADB6853F8A4
:1056C0002500B8B9012101FA05F6721D20469200A5
:1056D00000F05EFB60B1C0E901560EE0212204211A
:1056E000204600F055FB636AF060DB68002BE4D1D4
:1056F000002070BD026843F825200023C0E9033371
:10570000F7E700BFA57400082C75000870B5466A5D
:1057100005460C4676B91020FFF794FF02466862F2
:1057200020B98A21084B094800F052FDC0E9016602
:105730000660C6603CB16B6A6268DB6853F8221091
:10574000216043F8224070BDA57400082C75000844
:105750002DE9F04198460C4600230E69074601F1F9
:10576000140005680133A9B202FB01812D0C4FEA38
:10577000114C02FB05C589B201EB05419E424FEA7F
:10578000154840F8041BECDCB8F1000F22D0A368E8
:10579000B34219DC616838460131FFF777FF0546EF
:1057A00028B90246B5210D4B0D4800F011FD2269C4
:1057B00004F10C01023292000C30FFF759FF214630
:1057C0003846FFF7A3FF2C4604EB86030136C3F8E7
:1057D000148026612046BDE8F08100BF1B750008DB
:1057E0002C750008020C12040346CAB903041020E9
:1057F00013F07F4F04BF1B02083013F0704F04BF3B
:105800001B01043013F0404F04BF9B000230002BFB
:1058100005DB13F0804F00F1010008BF2020704726
:105820000020E5E70368024613F007000BD0D90714
:1058300022D4980749BF5B089B08012013605CBF16
:1058400002201360704799B209B910201B0C13F0A5
:10585000FF0F04BF1B0A0830190704BF1B090430DF
:10586000990704BF9B080230D90703D45B0800F1F5
:10587000010003D01360704700207047202070475C
:1058800010B50C460121FFF701FF024628B94FF47D
:10589000A071044B044800F09BFC012344610361A8
:1058A00010BD00BF1B7500082C7500082DE9F04FD6
:1058B00014460A6923690D469A42BEBF0B46254627
:1058C0001C46D5F810A0D4F81090AB6869680AEBB4
:1058D0000907BB4285B0B8BF0131FFF7D7FE30B929
:1058E000024640F25D11414B414800F071FC00F16D
:1058F00014063346002206EB870843451ED305F104
:10590000140C04F114030CEB8A0C03EB89020292D1
:10591000ACEB0502153A22F00302043205F1150141
:105920008C4538BF04220192029A03939A4208D808
:10593000002F55DC076105B0BDE8F08F43F8042B5C
:10594000DBE7B3F800A0BAF1000F20D0B146002287
:1059500005F1140E5EF8044BD9F800B0A1B21FFA9D
:105960008BFB0AFB01B11144D9F80020240C120C66
:105970000AFB042404EB114489B241EA0441F445D2
:105980004FEA144249F8041BE4D801997250039A73
:105990000433B2F80290B9F1000F1FD0B6464FF0B1
:1059A000000A346805F114010A88BEF802B0A4B2F6
:1059B00009FB02B2924444EA0A444EF8044B51F8FF
:1059C000044BBEF80020240C09FB04248C4504EB96
:1059D0001A444FEA144AE7D8019AB4500436A3E7B0
:1059E00058F8043D002BA5D1013FA1E71B75000825
:1059F0002C7500082DE9F843154612F003020646FF
:105A00000F4607D0254C013A002354F82220FFF717
:105A10009FFE0746AD103DD0746A7CB91020FFF799
:105A200011FE0246706228B94FF4D7711C4B1D4815
:105A300000F0CEFBC0E901440460C460D6F82480C5
:105A4000D8F808404CB940F271213046FFF718FFF2
:105A500000230446C8F8080003604FF00009EB0774
:105A60000AD5394622463046FFF720FF80463946A0
:105A70003046FFF74BFE47466D100BD0206838B913
:105A8000224621463046FFF711FF2060C0F8009003
:105A90000446E4E73846BDE8F88300BF8076000896
:105AA000A57400082C7500082DE9F0470C46074640
:105AB00091462369496803EB6218A3684FEA621AAA
:105AC00008F10106B3420BDB3846FFF7DFFD054660
:105AD00048B9024640F2D911274B284800F078FB1C
